:1000000012C019C018C017C016C015C014C013C044
:1000100012C011C010C00FC00EC00DC00CC00BC06C
:100020000AC009C008C011241FBECFE5D4E0DEBF5E
:10003000CDBF8BD043C1E4CFB89AC09A0895FF9248
:100040000F931F93CF93DF93082FF92EC42FD52F33
:10005000162FC09886E029D1C09A2FEF80E792E052
:10006000215080409040E1F700C00000C09885E03A
:100070001CD18FEF1ED1C09A2FEF80E792E0215064
:1000800080409040E1F700C00000C09882E00DD1B0
:100090008F2D0BD1802F09D1812F07D18D2F05D125
:1000A0008C2F03D1C09A2FEF80E792E0215080403F
:1000B0009040E1F700C00000C09885E0F6D08FEFD7
:1000C000F8D0C09A2FEF80E792E021508040904016
:1000D000E1F700C00000DF91CF911F910F91FF90D9
:1000E0000895CF92DF92EF92FF92F82EE92EC098FA
:1000F00083E0DBD08E2DD9D08F2DD7D08FEFD9D004
:10010000C82ED12CE12CF12CFE2CED2CDC2CCC2497
:100110008FEFCFD0C82AFE2CED2CDC2CCC248FEF17
:10012000C8D0C09A2FEF30E742E021503040404025
:10013000E1F700C00000A7019601282BCA01B90110
:10014000FF90EF90DF90CF90089580E08ED02FEF5A
:1001500080E792E0215080409040E1F700C000002D
:1001600083E08FD02FEF80E792E0215080409040D5
:10017000E1F700C0000039D02FEF80E792E0215076
:1001800080409040E1F700C0000056DF2FEF80E78D
:1001900092E0215080409040E1F700C00000C0E0B4
:1001A000D0E03ED0AB01BC012FEF89E698E12150B1
:1001B00080409040E1F700C00000CE0140DF2FEF0B
:1001C00089E698E1215080409040E1F700C00000AE
:1001D000CE0187DF2FEF89E698E1215080409040E3
:1001E000E1F700C000002396DCCFB99AC1982FEF49
:1001F00080E792E0215080409040E1F700C000008D
:10020000C19A80E852D084E050D0C1982FEF80E7A7
:1002100092E0215080409040E1F700C00000089536
:10022000CF92DF92EF92FF92C19A82E03ED08FEFA1
:1002300040D0C82ED12CE12CF12CFE2CED2CDC2C46
:10024000CC248FEF36D0C82AFE2CED2CDC2CCC240D
:100250008FEF2FD0C198A7019601282BCA01B901B1
:10026000FF90EF90DF90CF900895813029F480E1E6
:1002700087BB80E48DB908958CE287BB80E58DB99A
:100280000895813049F028F0823049F0833051F0F0
:1002900008956B986A9808956B986A9A08956B9A76
:1002A0006A9808956B9A6A9A08958FB9779BFECFE2
:1002B00008958FB9779BFECF8FB10895F894FFCF43
:00000001FF
