S01600004932435F42697442616E67696E672E737265631C
S113000012C02CC02BC02AC029C028C027C026C0BB
S113001025C024C023C022C021C020C01FC01EC0D0
S11300201DC01CC01BC011241FBECFE5D4E0DEBF21
S1130030CDBF10E0A0E6B0E0E0E0FDE002C0059036
S11300400D92AC39B107D9F720E0ACE9B0E001C0BA
S11300501D92AE39B207E1F7B6D250C6D1CFEF92B6
S1130060FF920F931F93CF93DF938C01EB0160E614
S113007070E00F9648D32AD30F2EFAE0EF2EF12C1E
S1130080F02DB701FCD262957295707F7627607F60
S11300907627682B792B6A8360E670E080E090E035
S11300A032D314D3B701EBD262957295707F762761
S11300B0607F7627682B792B698362E670E080E0A5
S11300C090E021D303D3B701DAD262957295707FA1
S11300D07627607F7627682B792B688362E670E049
S11300E080E090E010D3009761F06FE870E00FD3E8
S11300F0892B21F48A8180668A8303C08A81806483
S11301008A83F801868D8B8364E670E0C801FBD294
S1130110DDD20AE010E0B801B2D262957295707F28
S11301207627607F7627682B792B6C8364E670E0F2
S113013080E090E0E8D2CAD2B801A1D2629572956B
S1130140707F7627607F7627682B792B6D8362E634
S113015070E080E090E0D7D2B9D2B80190D2629535
S11301607295707F7627607F7627682B792B6E8354
S1130170DF91CF911F910F91FF90EF900895CF934E
S1130180DF93CDB7DEB728970FB6F894DEBF0FBE66
S1130190CDBFBE016F5F7F4FCE010D9660DF7ED174
S11301A060ED80E081D160E082E07ED1698182E00F
S11301B07BD16A8182E078D16B8182E075D16C81D8
S11301C082E072D16D8182E06FD16E8182E06CD168
S11301D06F8182E069D182D128960FB6F894DEBF90
S11301E00FBECDBFDF91CF910895EF92FF920F9391
S11301F01F93CF93DF93CDB7DEB72A970FB6F8944A
S1130200DEBF0FBECDBF8C017B01FE0131968AE0BB
S1130210DF011D928A95E9F7F8018381DB015E967F
S11302208C93668155814481262F30E0359527953E
S1130230359527953595279535952795C901880FC7
S1130240991F220F331F220F331F220F331F820FD8
S1130250931F6F70860F911D8053984F9F938F93B8
S1130260252F30E035952795359527953595279594
S113027035952795C901880F991F220F331F220F27
S1130280331F220F331F820F931F5F70850F911D41
S11302909F938F93242F30E0359527953595279597
S11302A03595279535952795C901880F991F220FF4
S11302B0331F220F331F220F331F820F931F4F70E0
S11302C0840F911D9F938F9386E690E09F938F9365
S11302D0FF92EF9254D2F80122810FB6F894DEBF58
S11302E00FBECDBF26FF17C025FF09C080E290E5F1
S11302F0ADE4B0E089839A83AB83BC8308C040E259
S113030051E46DE470E049835A836B837C832F71DD
S1130310D80112962C93F801608151814281CE015B
S113032001969F938F93262F30E035952795359529
S113033027953595279535952795C901880F991FD8
S1130340220F331F220F331F220F331F820F931FDD
S11303506F70860F911D9F938F93252F30E03595F5
S11303602795359527953595279535952795C90171
S1130370880F991F220F331F220F331F220F331FA1
S1130380820F931F5F70850F911D9F938F93242F6E
S113039030E03595279535952795359527953595ED
S11303A02795C901880F991F220F331F220F331F6E
S11303B0220F331F820F931F4F70840F911D9F9341
S11303C08F9385E790E09F938F93FFE0EF0EF11CEE
S11303D0FF92EF92D4D10FB6F894DEBF0FBECDBF1B
S11303E02A960FB6F894DEBF0FBECDBFDF91CF9132
S11303F01F910F91FF90EF9008950F931F93CF9348
S1130400DF93CDB7DEB7A7970FB6F894DEBF0FBE64
S1130410CDBF8C0143D060ED80E046D060E082E047
S113042043D05CD03BD060ED81E03ED080E066D02C
S1130430898380E063D08A8380E060D08B8380E00E
S11304405DD08C8380E05AD08D8380E057D08E833A
S113045080E054D08F8381E051D088873FD0BE01A3
S1130460675F7F4FCE010196C0DE8FE1FE013996B2
S1130470D80101900D928A95E1F7C801A7960FB6AD
S1130480F894DEBF0FBECDBFDF91CF911F910F91C6
S11304900895AD9AA59AAC9AA49A0895A49AAD9A8F
S11304A0AC9AAC98AD980895A49A8130A1F4616097
S11304B012C0662314F4AC9A01C0AC98AD9AAD98FE
S11304C0660F01970097A9F7AC99AC98AD9AAC99CF
S11304D0FECFAD98089588E090E0EBCFA49AAD9854
S11304E0AC98AD9AAC9A0895A49AAC98AD9AAD988C
S11304F00895A49AAC9AAD9AAD980895CF93A49810
S113050028E030E0C0E0CC0FAD9A9C99C160AD9872
S11305102150310921153105B1F7811102C0E4DF01
S113052003C0813009F4E5DF8C2FCF91089594E066
S113053098BBEFE0F7E23197F1F700C0000082BB0F
S113054018BA8FE097E20197F1F700C00000089510
S113055087B38FEF87BB91B381BB18BA12BA88E314
S1130560E6DF8EE0E4DF81E0E2DF8FE097E20197EF
S1130570F1F700C00000089595E098BBEFE0F7E2C2
S11305803197F1F700C0000082BB81E088BB8FE0A7
S113059097E20197F1F700C000000895CF93DF932D
S11305A0EB01019719F480E8C2DF02C080ECBFDFE1
S11305B08881882329F02196DFDF89918111FCCF7E
S11305C0DF91CF910895CF93DF93CDB7DEB7CD55AB
S11305D0D1090FB6F894DEBF0FBECDBFB9DF59DF26
S11305E08CE0E6E8F0E0DE01509601900D928A95E9
S11305F0E1F789E0E2E9F0E0DE01119601900D9265
S11306008A95E1F781E08F8F8DB79EB74F970FB62C
S1130610F8949EBF0FBE8DBFADB7BEB711968FE1E4
S1130620FE01319601900D928A95E1F7A8DD0FB68F
S1130630F894DEBF0FBECDBF1FE1CE01CF96DDDE45
S1130640FE01FF96DE019096812F01900D928A950E
S1130650E1F7BE01615D7F4F81E090E09FDFBE0165
S1130660605E7F4F82E090E099DF9FEF2DE389E4A5
S1130670915020408040E1F700C00000DECF97FB9E
S1130680072E16F4009406D077FD08D00BD007FC93
S113069005D03EF4909581959F4F0895709561958E
S11306A07F4F0895AA1BBB1B51E107C0AA1FBB1FA4
S11306B0A617B70710F0A61BB70B881F991F5A95EA
S11306C0A9F780959095BC01CD010895FC01882778
S11306D09927E89421912032E9F3293010F02E3043
S11306E0C8F32B3239F02D3231F4689403C03FD073
S11306F0820F911D219120532A30C8F31EF4909546
S113070081959F4F08954CE950E00AD00895FB016C
S1130710DC018D91019080190110D9F3990B089592
S1130720FA01A191B081009719F41097E1F0CD017D
S1130730DC01CD010D90002011F4C00113C0FB01B8
S11307402191222319F02015D9F7F3CFFB01219130
S1130750201519F41E92119606C02223C1F70D909C
S11307600020A1F7D001FA01A193B08308957AE0A3
S1130770979F902D879F802D910D11240895AEE0B1
S1130780B0E0E4ECF3E091C20D891E8986E08C832D
S11307901A8309838FEF9FE79E838D83AE01475EA3
S11307A05F4F6F89788DCE01019608D0EF81F8856F
S11307B0E00FF11F10822E96E4E093C2ACE0B0E0AB
S11307C0E3EEF3E064C27C016B018A01FC01178251
S11307D01682838181FFB0C1CE0101964C01F701DD
S11307E09381F60193FD859193FF81916F01882395
S11307F009F49EC1853239F493FD859193FF81916B
S11308006F01853221F4B70190E0B1D1E8CF512CCA
S1130810312C20E02032A0F48B3269F030F48032A5
S113082059F0833269F420612CC08D3239F0803361
S113083039F4216026C02260246023C0286021C0CE
S113084027FD27C030ED380F3A3078F426FF06C074
S1130850FAE05F9E300D1124532E13C08AE0389EB7
S1130860300D1124332E20620CC08E3221F426FD6B
S11308705FC1206406C08C3611F4206802C088363B
S113088041F4F60193FD859193FF81916F018111EC
S1130890C1CF982F9F7D9554933028F40C5F1F4F40
S11308A0FFE3F9830DC0833631F0833771F083356C
S11308B009F057C021C0F801808189830E5F1F4F62
S11308C044244394512C540114C03801F2E06F0EB7
S11308D0711CF801A080B18026FF03C0652D70E073
S11308E002C06FEF7FEFC5012C8736D12C01830145
S11308F02C852F77222E16C03801F2E06F0E711C62
S1130900F801A080B18026FF03C0652D70E002C00D
S11309106FEF7FEFC5012C8714D12C012C85206843
S1130920222E830123FC19C0832D90E0481659061A
S1130930A0F4B70180E290E01AD13A94F5CFF50122
S113094027FC859127FE81915F01B70190E00FD1CB
S113095031103A94F1E04F1A51084114510479F7D7
S1130960DEC0843611F0893631F5F80127FF07C05F
S113097060817181828193810C5F1F4F08C0608107
S11309807181882777FD8095982F0E5F1F4F2F76F2
S1130990B22E97FF09C090958095709561957F4F11
S11309A08F4F9F4F2068B22E2AE030E0A40111D16E
S11309B0A82EA81843C0853729F42F7EB22E2AE02A
S11309C030E025C0F22FF97FBF2E8F36C1F018F426
S11309D0883579F0ADC0803719F0883721F0A8C088
S11309E02F2F2061B22EB4FE0DC08B2D8460B82E43
S11309F009C024FF0AC09F2F9660B92E06C028E0C4
S1130A0030E005C020E130E002C020E132E0F8012E
S1130A10B7FE07C060817181828193810C5F1F4F93
S1130A2006C06081718180E090E00E5F1F4FA401D9
S1130A30D0D0A82EA818FB2DFF77BF2EB6FE0BC072
S1130A402B2D2E7FA51450F4B4FE0AC0B2FC08C0AE
S1130A502B2D2E7E05C07A2C2B2D03C07A2C01C0A1
S1130A60752C24FF0DC0FE01EA0DF11D8081803339
S1130A7011F4297E09C022FF06C07394739404C044
S1130A80822F867809F0739423FD12C020FF06C0DC
S1130A905A2C731418F4530C5718732C731460F4F1
S1130AA0B70180E290E02C8762D073942C85F6CF56
S1130AB0731410F4371801C0312C24FF11C0B7018E
S1130AC080E390E02C8753D02C8522FF16C021FFB1
S1130AD003C088E590E002C088E790E0B7010CC04D
S1130AE0822F867851F021FD02C080E201C08BE2A2
S1130AF027FD8DE2B70190E03AD0A51430F4B70198
S1130B0080E390E034D05A94F8CFAA94F401EA0D2B
S1130B10F11D8081B70190E02AD0A110F6CF3320D7
S1130B2009F45DCEB70180E290E021D03A94F7CF8A
S1130B30F7018681978102C08FEF9FEF2C96E2E147
S1130B40C2C0FC010590615070400110D8F7809537
S1130B5090958E0F9F1F0895FC0161507040019085
S1130B600110D8F7809590958E0F9F1F08950F93CD
S1130B701F93CF93DF93182F092FEB018B8181FDF6
S1130B8003C08FEF9FEF20C082FF10C04E815F81B2
S1130B902C813D81421753077CF4E881F9819F0140
S1130BA02F5F3F4F39832883108306C0E885F9857A
S1130BB0812F0995892B29F72E813F812F5F3F4F84
S1130BC03F832E83812F902FDF91CF911F910F911F
S1130BD00895FA01AA27283051F1203181F1E894CF
S1130BE06F936E7F6E5F7F4F8F4F9F4FAF4FB1E01C
S1130BF03ED0B4E03CD0670F781F891F9A1FA11D17
S1130C00680F791F8A1F911DA11D6A0F711D811D17
S1130C10911DA11D20D009F468943F912AE0269FDC
S1130C2011243019305D3193DEF6CF010895462F3B
S1130C304770405D4193B3E00FD0C9F7F6CF462F1C
S1130C404F70405D4A3318F0495D31FD4052419385
S1130C5002D0A9F7EACFB4E0A69597958795779542
S1130C606795BA95C9F700976105710508959B01C9
S1130C70AC010A2E06945795479537952795BA9552
S1130C80C9F7620F731F841F951FA01D08952F922B
S1130C903F924F925F926F927F928F929F92AF9208
S1130CA0BF92CF92DF92EF92FF920F931F93CF9355
S1130CB0DF93CDB7DEB7CA1BDB0B0FB6F894DEBFEC
S1130CC00FBECDBF09942A88398848885F846E8412
S1130CD07D848C849B84AA84B984C884DF80EE805C
S1130CE0FD800C811B81AA81B981CE0FD11D0FB665
S1130CF0F894DEBF0FBECDBFED010895F894FFCF89
S1130D003A0020002D00253032642D253032642D28
S1130D102530346400253032643A253032643A2573
S1130D2030326425730031313A35393A3535205043
S10F0D304D0032362D30372D31380000D4
S9030000FC
