S00B00004C43442E7372656346
S113000012C024C023C022C021C020C01FC01EC0F3
S11300101DC01CC01BC01AC019C018C017C016C010
S113002015C014C013C011241FBECFE5D4E0DEBF39
S1130030CDBF10E0A0E6B0E0E6E3F1E002C0059039
S11300400D92AE37B107D9F756D073C0D9CF94E02B
S113005098BBEFE0F7E23197F1F700C0000082BBF4
S113006018BA8FE097E20197F1F700C000000895F5
S113007087B38FEF87BB91B381BB18BA12BA88E3F9
S1130080E6DF8EE0E4DF81E0E2DF8FE097E20197D4
S1130090F1F700C00000089595E098BBEFE0F7E2A7
S11300A03197F1F700C0000082BB81E088BB8FE08C
S11300B097E20197F1F700C0000008950F931F9392
S11300C0CF93DF938C01EB0181E0C1DF0130110597
S11300D019F480E8BCDF02C080ECB9DF8881882392
S11300E029F02196D9DF89918111FCCFDF91CF913D
S11300F01F910F910895BCDF60E670E081E090E00D
S1130100DDDF2FEF89E698E1215080409040E1F750
S113011000C000006CE670E082E090E0CFDF2FEFDB
S113012089E698E1215080409040E1F700C000004A
S1090130E3CFF894FFCFB9
S113013652616D204B756D6172204400456D626598
S111014664646564456E67696E6565720000E9
S9030000FC
