S01700004C6564426C696E6B5F54696D6572732E7372656335
S113000012C021C020C01FC030C01DC01CC01BC0F6
S11300101AC01AC018C017C016C015C014C013C027
S113002012C011C010C011241FBECFE5D4E0DEBF42
S1130030CDBF20E0A0E6B0E001C01D92A236B20719
S1130040E1F724D091C0DCCF1F920F920FB60F922C
S113005011248F93809161008F5F809361008F9151
S11300600F900FBE0F901F9018951F920F920FB60E
S11300700F9211248F93809160008F5F80936000B2
S11300808F910F900FBE0F901F90189588EF84BB2F
S113009087E085BB83B7856083BF12BE89B7816063
S11300A089BF109261008EB584608EBD1DBC1CBCDE
S11300B085B5876085BD14BC89B7806489BF1092FB
S11300C06000789454E040E0E0E270E168E09899E0
S11300D017C010926100852F942F0DC020916100EC
S11300E02D33E0F325B3262725BB12BE1092610001
S11300F00197009761F3209161002D3378F3F2CFDB
S1130100999918C0252F342F0FC08CB59DB5843212
S1130110944FD8F385B3872785BB1DBC1CBC2150E5
S113012031092115310599F28CB59DB58432944F6E
S113013060F3F0CF9A99CBCF10926000852F942F63
S11301400EC0209160002D33E0F325B32E2725BB8C
S113015014BC109260000197009709F4B8CF209165
S10F016060002D3370F3F1CFF894FFCF52
S9030000FC
