:1000000012C019C018C017C016C015C014C013C044
:1000100012C011C010C00FC00EC00DC00CC00BC06C
:100020000AC009C008C011241FBECFE5D4E0DEBF5E
:10003000CDBF65D0BAC0E4CF17B887E886B90895B8
:1000400097B18770987F982B97B9369A3699FECFDB
:1000500084B195B1089594E098BBEFE0F7E2319751
:10006000F1F700C0000082BB18BA8FE097E2019759
:10007000F1F700C00000089587B38FEF87BB91B3FD
:1000800081BB18BA12BA88E3E6DF8EE0E4DF81E0D4
:10009000E2DF8FE097E20197F1F700C000000895DA
:1000A00095E098BBEFE0F7E23197F1F700C0000070
:1000B00082BB81E088BB8FE097E20197F1F700C037
:1000C000000008950F931F93CF93DF938C01EB01F2
:1000D00081E0C1DF0130110519F480E8BCDF02C006
:1000E00080ECB9DF8881882329F02196D9DF8991B6
:1000F0008111FCCFDF91CF911F910F910895CF9384
:10010000DF93CDB7DEB72A970FB6F894DEBF0FBEE8
:10011000CDBF92DFB1DF80E093DF4AE0BE016F5FC9
:100120007F4F10D0BE016F5F7F4F81E090E0CADF4C
:100130002FEF89E698E1215080409040E1F700C020
:100140000000E9CFBB274A3031F4992322F4BDE205
:10015000909581959F4F01C0BB27FB015527AA278A
:10016000880F991FAA1FA41710F0A41B8395505144
:10017000B9F7A05DAA3308F0A95DA193009779F7BC
:10018000B111B1931192CB0100C0DC01FC01672FCA
:1001900071917723E1F7329704C07C916D9370835E
:0E01A0006291AE17BF07C8F30895F894FFCF21
:00000001FF
