:1000000012C021C020C01FC01EC01DC01CC01BC00C
:100010001AC019C018C017C016C015C014C013C02C
:1000200012C011C010C011241FBECFE5D4E0DEBF46
:10003000CDBF20E0A0E6B0E001C01D92A236B2071D
:10004000E1F702D01DC0DCCF8FB5806A8FBD8EB5C1
:1000500081618EBD8FEF9FEF97BD86BD87B38660B0
:1000600087BB81E090E090936100809360008FEF08
:100070009FE39BBD8ABD8FEF9FE599BD88BDFFCFF4
:04008000F894FFCF22
:00000001FF
