:1000000012C024C023C022C021C020C01FC01EC0F7
:100010001DC01CC01BC01AC019C018C017C016C014
:1000200015C014C013C011241FBECFE5D4E0DEBF3D
:10003000CDBF10E0A0E6B0E0E6E6F1E002C005903A
:100040000D92A637B107D9F702D08BC0D9CF60E0A7
:1000500080E895E20FD080E690E053D02FEF80E764
:1000600092E0215080409040E1F700C0000045D070
:1000700040D0FDCF6623D1F022E02BB9A0E0B0E064
:10008000880F991FAA1FBB1F880F991FAA1FBB1F8C
:100090009C01AD01220F331F441F551F60E072E128
:1000A0008AE790E03CD0215031091CC01BB8A0E089
:1000B000B0E0880F991FAA1FBB1F880F991FAA1FA6
:1000C000BB1F9C01AD01220F331F441F551F220F80
:1000D000331F441F551F60E072E18AE790E01FD094
:1000E0002150310988E18AB986E880BD30BD29B93F
:1000F00008955D9BFECF8CB908955F9BFECF8CB1B8
:100100000895CF93DF93EC018881882329F021960D
:10011000F0DF89918111FCCFDF91CF910895A1E2A9
:100120001A2EAA1BBB1BFD010DC0AA1FBB1FEE1F71
:10013000FF1FA217B307E407F50720F0A21BB30BBC
:10014000E40BF50B661F771F881F991F1A9469F738
:1001500060957095809590959B01AC01BD01CF0194
:060160000895F894FFCFA2
:1001660048656C6C6F206974732052616D206865F8
:0601760072652E2E000050
:00000001FF
