:1000000012C019C018C017C016C015C014C013C044
:1000100012C011C010C00FC00EC00DC00CC00BC06C
:100020000AC009C008C011241FBECFE5D4E0DEBF5E
:10003000CDBF29D053C0E4CF11B88CE080B908956A
:1000400084EA86BF06B607FEFDCF81B1887F88307F
:10005000E1F7089583B984E886BF06B607FEFDCFB1
:1000600081B1887F8034E1F7089584EC86BF06B6BD
:1000700007FEFDCF81B1887F8035E1F783B1089518
:1000800084E986BF0895D8DFDBDF2FEF80E792E0B9
:10009000215080409040E1F700C0000081E2DADFAB
:1000A0002FEF80E792E0215080409040E1F700C0C0
:1000B0000000DBDF2FEF80E792E02150804090408E
:1000C000E1F700C00000DCDF2FEF80E792E0215075
:1000D00080409040E1F700C00000D6CFF894FFCFF9
:00000001FF
