S01C000054696D6572202850574D20435443204D6F6465292E7372656303
S113000012C021C020C03EC01EC01DC01DC01BC0E8
S11300101AC019C018C017C016C015C014C013C028
S113002012C011C010C011241FBECFE5D4E0DEBF42
S1130030CDBF20E0A0E6B0E001C01D92A236B20719
S1130040E1F738D047C0DCCF1F920F920FB60F9262
S113005011248F939F93809161008F5F809361003F
S113006080FD05C08FEF9FE39BBD8ABD04C08FEF69
S11300709FEB9BBD8ABD9F918F910F900FBE0F90F8
S11300801F9018951F920F920FB60F9211248F9301
S1130090809160008F5F8093600080FD03C08FEBD0
S11300A083BD02C080E483BD8F910F900FBE0F907B
S11300B01F90189578948FB580658FBD8EB5896132
S11300C08EBD1DBC1CBC8FEF9FE797BD86BD86E02F
S10B00D087BBFFCFF894FFCFBA
S9030000FC
