:1000000012C021C020C01FC01EC01DC01CC01BC00C
:100010001AC019C018C017C016C015C014C013C02C
:1000200012C011C010C011241FBECFE5D4E0DEBF46
:10003000CDBF20E0A0E6B0E001C01D92A236B2071D
:10004000E1F702D02EC0DCCF8FB5826A8FBD8EB5AE
:1000500089618EBD8FEF9FEF97BD86BD87B38660A8
:1000600087BB81E090E0909361008093600085B54C
:100070008F6685BDBB9A8091600090916100892B4D
:1000800049F08FEF9FE39BBD8ABD8FEF9FE699BD3F
:1000900088BD04C08FEF9FE399BD88BD80E483BD18
:0600A000FFCFF894FFCF32
:00000001FF
