:1000000012C019C018C017C016C015C014C013C044
:1000100012C011C010C00FC00EC00DC00CC00BC06C
:100020000AC009C008C011241FBECFE5D4E0DEBF5E
:10003000CDBF25D052C0E4CF11B88CE080B908956F
:1000400084EA86BF06B607FEFDCF81B1887F88307F
:10005000E1F7089563B994E896BF06B607FEFDCFB1
:10006000882329F081B1887F8832E1F7089581B132
:10007000887F8831E1F7089584E986BF0895DCDF41
:10008000DFDF2FEF80E792E0215080409040E1F7E2
:1000900000C0000060E280E0DDDF2FEF80E792E04B
:1000A000215080409040E1F700C0000062E481E010
:1000B000D1DF2FEF80E792E0215080409040E1F7C0
:1000C00000C00000D9DF2FEF80E792E02150804090
:0E00D0009040E1F700C00000D3CFF894FFCFBE
:00000001FF
